{
  "_format": "hh-sol-artifact-1",
  "contractName": "NFT",
  "sourceName": "contracts/NFT.sol",
  "abi": [
    {
      "anonymous": false,
      "inputs": [
        {
          "indexed": true,
          "internalType": "address",
          "name": "owner",
          "type": "address"
        },
        {
          "indexed": true,
          "internalType": "address",
          "name": "approved",
          "type": "address"
        },
        {
          "indexed": true,
          "internalType": "uint256",
          "name": "tokenId",
          "type": "uint256"
        }
      ],
      "name": "Approval",
      "type": "event"
    },
    {
      "anonymous": false,
      "inputs": [
        {
          "indexed": true,
          "internalType": "address",
          "name": "owner",
          "type": "address"
        },
        {
          "indexed": true,
          "internalType": "address",
          "name": "operator",
          "type": "address"
        },
        {
          "indexed": false,
          "internalType": "bool",
          "name": "approved",
          "type": "bool"
        }
      ],
      "name": "ApprovalForAll",
      "type": "event"
    },
    {
      "anonymous": false,
      "inputs": [
        {
          "indexed": true,
          "internalType": "address",
          "name": "from",
          "type": "address"
        },
        {
          "indexed": true,
          "internalType": "address",
          "name": "to",
          "type": "address"
        },
        {
          "indexed": true,
          "internalType": "uint256",
          "name": "tokenId",
          "type": "uint256"
        }
      ],
      "name": "Transfer",
      "type": "event"
    },
    {
      "inputs": [
        {
          "internalType": "address",
          "name": "to",
          "type": "address"
        },
        {
          "internalType": "uint256",
          "name": "tokenId",
          "type": "uint256"
        }
      ],
      "name": "approve",
      "outputs": [],
      "stateMutability": "nonpayable",
      "type": "function"
    },
    {
      "inputs": [
        {
          "internalType": "address",
          "name": "owner",
          "type": "address"
        }
      ],
      "name": "balanceOf",
      "outputs": [
        {
          "internalType": "uint256",
          "name": "",
          "type": "uint256"
        }
      ],
      "stateMutability": "view",
      "type": "function"
    },
    {
      "inputs": [
        {
          "internalType": "string",
          "name": "tokenURI",
          "type": "string"
        }
      ],
      "name": "createToken",
      "outputs": [
        {
          "internalType": "uint256",
          "name": "",
          "type": "uint256"
        }
      ],
      "stateMutability": "nonpayable",
      "type": "function"
    },
    {
      "inputs": [
        {
          "internalType": "uint256",
          "name": "tokenId",
          "type": "uint256"
        }
      ],
      "name": "getApproved",
      "outputs": [
        {
          "internalType": "address",
          "name": "",
          "type": "address"
        }
      ],
      "stateMutability": "view",
      "type": "function"
    },
    {
      "inputs": [
        {
          "internalType": "address",
          "name": "marketplaceAddress",
          "type": "address"
        }
      ],
      "name": "initialize",
      "outputs": [],
      "stateMutability": "nonpayable",
      "type": "function"
    },
    {
      "inputs": [
        {
          "internalType": "address",
          "name": "owner",
          "type": "address"
        },
        {
          "internalType": "address",
          "name": "operator",
          "type": "address"
        }
      ],
      "name": "isApprovedForAll",
      "outputs": [
        {
          "internalType": "bool",
          "name": "",
          "type": "bool"
        }
      ],
      "stateMutability": "view",
      "type": "function"
    },
    {
      "inputs": [],
      "name": "name",
      "outputs": [
        {
          "internalType": "string",
          "name": "",
          "type": "string"
        }
      ],
      "stateMutability": "view",
      "type": "function"
    },
    {
      "inputs": [
        {
          "internalType": "uint256",
          "name": "tokenId",
          "type": "uint256"
        }
      ],
      "name": "ownerOf",
      "outputs": [
        {
          "internalType": "address",
          "name": "",
          "type": "address"
        }
      ],
      "stateMutability": "view",
      "type": "function"
    },
    {
      "inputs": [
        {
          "internalType": "address",
          "name": "from",
          "type": "address"
        },
        {
          "internalType": "address",
          "name": "to",
          "type": "address"
        },
        {
          "internalType": "uint256",
          "name": "tokenId",
          "type": "uint256"
        }
      ],
      "name": "safeTransferFrom",
      "outputs": [],
      "stateMutability": "nonpayable",
      "type": "function"
    },
    {
      "inputs": [
        {
          "internalType": "address",
          "name": "from",
          "type": "address"
        },
        {
          "internalType": "address",
          "name": "to",
          "type": "address"
        },
        {
          "internalType": "uint256",
          "name": "tokenId",
          "type": "uint256"
        },
        {
          "internalType": "bytes",
          "name": "_data",
          "type": "bytes"
        }
      ],
      "name": "safeTransferFrom",
      "outputs": [],
      "stateMutability": "nonpayable",
      "type": "function"
    },
    {
      "inputs": [
        {
          "internalType": "address",
          "name": "operator",
          "type": "address"
        },
        {
          "internalType": "bool",
          "name": "approved",
          "type": "bool"
        }
      ],
      "name": "setApprovalForAll",
      "outputs": [],
      "stateMutability": "nonpayable",
      "type": "function"
    },
    {
      "inputs": [],
      "name": "setCounterTo100",
      "outputs": [],
      "stateMutability": "nonpayable",
      "type": "function"
    },
    {
      "inputs": [
        {
          "internalType": "bytes4",
          "name": "interfaceId",
          "type": "bytes4"
        }
      ],
      "name": "supportsInterface",
      "outputs": [
        {
          "internalType": "bool",
          "name": "",
          "type": "bool"
        }
      ],
      "stateMutability": "view",
      "type": "function"
    },
    {
      "inputs": [],
      "name": "symbol",
      "outputs": [
        {
          "internalType": "string",
          "name": "",
          "type": "string"
        }
      ],
      "stateMutability": "view",
      "type": "function"
    },
    {
      "inputs": [
        {
          "internalType": "uint256",
          "name": "tokenId",
          "type": "uint256"
        }
      ],
      "name": "tokenURI",
      "outputs": [
        {
          "internalType": "string",
          "name": "",
          "type": "string"
        }
      ],
      "stateMutability": "view",
      "type": "function"
    },
    {
      "inputs": [
        {
          "internalType": "address",
          "name": "from",
          "type": "address"
        },
        {
          "internalType": "address",
          "name": "to",
          "type": "address"
        },
        {
          "internalType": "uint256",
          "name": "tokenId",
          "type": "uint256"
        }
      ],
      "name": "transferFrom",
      "outputs": [],
      "stateMutability": "nonpayable",
      "type": "function"
    }
  ],
  "bytecode": "0x608060405234801561001057600080fd5b506119e0806100206000396000f3fe608060405234801561001057600080fd5b50600436106101005760003560e01c806370a0823111610097578063b88d4fde11610066578063b88d4fde14610212578063c4d66de814610225578063c87b56dd14610238578063e985e9c51461024b57600080fd5b806370a08231146101dc57806395d89b41146101ef578063a22cb465146101f7578063b4cb071a1461020a57600080fd5b806323b872dd116100d357806323b872dd1461018257806342842e0e1461019557806345576f94146101a85780636352211e146101c957600080fd5b806301ffc9a71461010557806306fdde031461012d578063081812fc14610142578063095ea7b31461016d575b600080fd5b610118610113366004611647565b610287565b60405190151581526020015b60405180910390f35b6101356102d9565b6040516101249190611775565b6101556101503660046116c5565b61036b565b6040516001600160a01b039091168152602001610124565b61018061017b36600461161e565b6103f8565b005b610180610190366004611530565b61050e565b6101806101a3366004611530565b61053f565b6101bb6101b636600461167f565b61055a565b604051908152602001610124565b6101556101d73660046116c5565b6105a2565b6101bb6101ea3660046114e4565b610619565b6101356106a0565b6101806102053660046115e4565b6106af565b610180610774565b61018061022036600461156b565b6107a8565b6101806102333660046114e4565b6107e0565b6101356102463660046116c5565b6108ba565b6101186102593660046114fe565b6001600160a01b039182166000908152606a6020908152604080832093909416825291909152205460ff1690565b60006001600160e01b031982166380ac58cd60e01b14806102b857506001600160e01b03198216635b5e139f60e01b145b806102d357506301ffc9a760e01b6001600160e01b03198316145b92915050565b6060606580546102e8906118e8565b80601f0160208091040260200160405190810160405280929190818152602001828054610314906118e8565b80156103615780601f1061033657610100808354040283529160200191610361565b820191906000526020600020905b81548152906001019060200180831161034457829003601f168201915b5050505050905090565b600061037682610a31565b6103dc5760405162461bcd60e51b815260206004820152602c60248201527f4552433732313a20617070726f76656420717565727920666f72206e6f6e657860448201526b34b9ba32b73a103a37b5b2b760a11b60648201526084015b60405180910390fd5b506000908152606960205260409020546001600160a01b031690565b6000610403826105a2565b9050806001600160a01b0316836001600160a01b031614156104715760405162461bcd60e51b815260206004820152602160248201527f4552433732313a20617070726f76616c20746f2063757272656e74206f776e656044820152603960f91b60648201526084016103d3565b336001600160a01b038216148061048d575061048d8133610259565b6104ff5760405162461bcd60e51b815260206004820152603860248201527f4552433732313a20617070726f76652063616c6c6572206973206e6f74206f7760448201527f6e6572206e6f7220617070726f76656420666f7220616c6c000000000000000060648201526084016103d3565b6105098383610a4e565b505050565b6105183382610abc565b6105345760405162461bcd60e51b81526004016103d390611828565b610509838383610ba2565b610509838383604051806020016040528060008152506107a8565b600061056a60c980546001019055565b600061057560c95490565b90506105813382610d42565b61058b8184610e75565b60ca546102d3906001600160a01b031660016106af565b6000818152606760205260408120546001600160a01b0316806102d35760405162461bcd60e51b815260206004820152602960248201527f4552433732313a206f776e657220717565727920666f72206e6f6e657869737460448201526832b73a103a37b5b2b760b91b60648201526084016103d3565b60006001600160a01b0382166106845760405162461bcd60e51b815260206004820152602a60248201527f4552433732313a2062616c616e636520717565727920666f7220746865207a65604482015269726f206164647265737360b01b60648201526084016103d3565b506001600160a01b031660009081526068602052604090205490565b6060606680546102e8906118e8565b6001600160a01b0382163314156107085760405162461bcd60e51b815260206004820152601960248201527f4552433732313a20617070726f766520746f2063616c6c65720000000000000060448201526064016103d3565b336000818152606a602090815260408083206001600160a01b03871680855290835292819020805460ff191686151590811790915590519081529192917f17307eab39ab6107e8899845ad3d59bd9653f200f220920489ca2b5937696c31910160405180910390a35050565b600060c95560005b60648110156107a55761079360c980546001019055565b8061079d81611923565b91505061077c565b50565b6107b23383610abc565b6107ce5760405162461bcd60e51b81526004016103d390611828565b6107da84848484610f00565b50505050565b600054610100900460ff16806107f9575060005460ff16155b6108155760405162461bcd60e51b81526004016103d3906117da565b600054610100900460ff16158015610837576000805461ffff19166101011790555b610889604051806040016040528060158152602001742a3432a0b6b0bd34b733ab32b939b2902a37b5b2b760591b8152506040518060400160405280600381526020016210559560ea1b815250610f33565b60ca80546001600160a01b0319166001600160a01b03841617905580156108b6576000805461ff00191690555b5050565b60606108c582610a31565b61092b5760405162461bcd60e51b815260206004820152603160248201527f45524337323155524953746f726167653a2055524920717565727920666f72206044820152703737b732bc34b9ba32b73a103a37b5b2b760791b60648201526084016103d3565b60008281526097602052604081208054610944906118e8565b80601f0160208091040260200160405190810160405280929190818152602001828054610970906118e8565b80156109bd5780601f10610992576101008083540402835291602001916109bd565b820191906000526020600020905b8154815290600101906020018083116109a057829003601f168201915b5050505050905060006109db60408051602081019091526000815290565b90508051600014156109ee575092915050565b815115610a20578082604051602001610a08929190611709565b60405160208183030381529060405292505050919050565b610a2984610fba565b949350505050565b6000908152606760205260409020546001600160a01b0316151590565b600081815260696020526040902080546001600160a01b0319166001600160a01b0384169081179091558190610a83826105a2565b6001600160a01b03167f8c5be1e5ebec7d5bd14f71427d1e84f3dd0314c0f7b2291e5b200ac8c7c3b92560405160405180910390a45050565b6000610ac782610a31565b610b285760405162461bcd60e51b815260206004820152602c60248201527f4552433732313a206f70657261746f7220717565727920666f72206e6f6e657860448201526b34b9ba32b73a103a37b5b2b760a11b60648201526084016103d3565b6000610b33836105a2565b9050806001600160a01b0316846001600160a01b03161480610b6e5750836001600160a01b0316610b638461036b565b6001600160a01b0316145b80610a2957506001600160a01b038082166000908152606a602090815260408083209388168352929052205460ff16610a29565b826001600160a01b0316610bb5826105a2565b6001600160a01b031614610c1d5760405162461bcd60e51b815260206004820152602960248201527f4552433732313a207472616e73666572206f6620746f6b656e2074686174206960448201526839903737ba1037bbb760b91b60648201526084016103d3565b6001600160a01b038216610c7f5760405162461bcd60e51b8152602060048201526024808201527f4552433732313a207472616e7366657220746f20746865207a65726f206164646044820152637265737360e01b60648201526084016103d3565b610c8a600082610a4e565b6001600160a01b0383166000908152606860205260408120805460019290610cb39084906118a5565b90915550506001600160a01b0382166000908152606860205260408120805460019290610ce1908490611879565b909155505060008181526067602052604080822080546001600160a01b0319166001600160a01b0386811691821790925591518493918716917fddf252ad1be2c89b69c2b068fc378daa952ba7f163c4a11628f55a4df523b3ef91a4505050565b6001600160a01b038216610d985760405162461bcd60e51b815260206004820181905260248201527f4552433732313a206d696e7420746f20746865207a65726f206164647265737360448201526064016103d3565b610da181610a31565b15610dee5760405162461bcd60e51b815260206004820152601c60248201527f4552433732313a20746f6b656e20616c7265616479206d696e7465640000000060448201526064016103d3565b6001600160a01b0382166000908152606860205260408120805460019290610e17908490611879565b909155505060008181526067602052604080822080546001600160a01b0319166001600160a01b03861690811790915590518392907fddf252ad1be2c89b69c2b068fc378daa952ba7f163c4a11628f55a4df523b3ef908290a45050565b610e7e82610a31565b610ee15760405162461bcd60e51b815260206004820152602e60248201527f45524337323155524953746f726167653a2055524920736574206f66206e6f6e60448201526d32bc34b9ba32b73a103a37b5b2b760911b60648201526084016103d3565b60008281526097602090815260409091208251610509928401906113b9565b610f0b848484610ba2565b610f1784848484611092565b6107da5760405162461bcd60e51b81526004016103d390611788565b600054610100900460ff1680610f4c575060005460ff16155b610f685760405162461bcd60e51b81526004016103d3906117da565b600054610100900460ff16158015610f8a576000805461ffff19166101011790555b610f9261119f565b610f9a61119f565b610fa4838361120a565b8015610509576000805461ff0019169055505050565b6060610fc582610a31565b6110295760405162461bcd60e51b815260206004820152602f60248201527f4552433732314d657461646174613a2055524920717565727920666f72206e6f60448201526e3732bc34b9ba32b73a103a37b5b2b760891b60648201526084016103d3565b600061104060408051602081019091526000815290565b90506000815111611060576040518060200160405280600081525061108b565b8061106a8461129f565b60405160200161107b929190611709565b6040516020818303038152906040525b9392505050565b60006001600160a01b0384163b1561119457604051630a85bd0160e11b81526001600160a01b0385169063150b7a02906110d6903390899088908890600401611738565b602060405180830381600087803b1580156110f057600080fd5b505af1925050508015611120575060408051601f3d908101601f1916820190925261111d91810190611663565b60015b61117a573d80801561114e576040519150601f19603f3d011682016040523d82523d6000602084013e611153565b606091505b5080516111725760405162461bcd60e51b81526004016103d390611788565b805181602001fd5b6001600160e01b031916630a85bd0160e11b149050610a29565b506001949350505050565b600054610100900460ff16806111b8575060005460ff16155b6111d45760405162461bcd60e51b81526004016103d3906117da565b600054610100900460ff161580156111f6576000805461ffff19166101011790555b80156107a5576000805461ff001916905550565b600054610100900460ff1680611223575060005460ff16155b61123f5760405162461bcd60e51b81526004016103d3906117da565b600054610100900460ff16158015611261576000805461ffff19166101011790555b82516112749060659060208601906113b9565b5081516112889060669060208501906113b9565b508015610509576000805461ff0019169055505050565b6060816112c35750506040805180820190915260018152600360fc1b602082015290565b8160005b81156112ed57806112d781611923565b91506112e69050600a83611891565b91506112c7565b60008167ffffffffffffffff81111561131657634e487b7160e01b600052604160045260246000fd5b6040519080825280601f01601f191660200182016040528015611340576020820181803683370190505b5090505b8415610a29576113556001836118a5565b9150611362600a8661193e565b61136d906030611879565b60f81b81838151811061139057634e487b7160e01b600052603260045260246000fd5b60200101906001600160f81b031916908160001a9053506113b2600a86611891565b9450611344565b8280546113c5906118e8565b90600052602060002090601f0160209004810192826113e7576000855561142d565b82601f1061140057805160ff191683800117855561142d565b8280016001018555821561142d579182015b8281111561142d578251825591602001919060010190611412565b5061143992915061143d565b5090565b5b80821115611439576000815560010161143e565b600067ffffffffffffffff8084111561146d5761146d61197e565b604051601f8501601f19908116603f011681019082821181831017156114955761149561197e565b816040528093508581528686860111156114ae57600080fd5b858560208301376000602087830101525050509392505050565b80356001600160a01b03811681146114df57600080fd5b919050565b6000602082840312156114f5578081fd5b61108b826114c8565b60008060408385031215611510578081fd5b611519836114c8565b9150611527602084016114c8565b90509250929050565b600080600060608486031215611544578081fd5b61154d846114c8565b925061155b602085016114c8565b9150604084013590509250925092565b60008060008060808587031215611580578081fd5b611589856114c8565b9350611597602086016114c8565b925060408501359150606085013567ffffffffffffffff8111156115b9578182fd5b8501601f810187136115c9578182fd5b6115d887823560208401611452565b91505092959194509250565b600080604083850312156115f6578182fd5b6115ff836114c8565b915060208301358015158114611613578182fd5b809150509250929050565b60008060408385031215611630578182fd5b611639836114c8565b946020939093013593505050565b600060208284031215611658578081fd5b813561108b81611994565b600060208284031215611674578081fd5b815161108b81611994565b600060208284031215611690578081fd5b813567ffffffffffffffff8111156116a6578182fd5b8201601f810184136116b6578182fd5b610a2984823560208401611452565b6000602082840312156116d6578081fd5b5035919050565b600081518084526116f58160208601602086016118bc565b601f01601f19169290920160200192915050565b6000835161171b8184602088016118bc565b83519083019061172f8183602088016118bc565b01949350505050565b6001600160a01b038581168252841660208201526040810183905260806060820181905260009061176b908301846116dd565b9695505050505050565b60208152600061108b60208301846116dd565b60208082526032908201527f4552433732313a207472616e7366657220746f206e6f6e20455243373231526560408201527131b2b4bb32b91034b6b83632b6b2b73a32b960711b606082015260800190565b6020808252602e908201527f496e697469616c697a61626c653a20636f6e747261637420697320616c72656160408201526d191e481a5b9a5d1a585b1a5e995960921b606082015260800190565b60208082526031908201527f4552433732313a207472616e736665722063616c6c6572206973206e6f74206f6040820152701ddb995c881b9bdc88185c1c1c9bdd9959607a1b606082015260800190565b6000821982111561188c5761188c611952565b500190565b6000826118a0576118a0611968565b500490565b6000828210156118b7576118b7611952565b500390565b60005b838110156118d75781810151838201526020016118bf565b838111156107da5750506000910152565b600181811c908216806118fc57607f821691505b6020821081141561191d57634e487b7160e01b600052602260045260246000fd5b50919050565b600060001982141561193757611937611952565b5060010190565b60008261194d5761194d611968565b500690565b634e487b7160e01b600052601160045260246000fd5b634e487b7160e01b600052601260045260246000fd5b634e487b7160e01b600052604160045260246000fd5b6001600160e01b0319811681146107a557600080fdfea2646970667358221220fff148e2bd1092cf5dcfcdeec3fa6240929961d39263fd7f5eb3c90e41e0363864736f6c63430008040033",
  "linkReferences": {},
  "deployedLinkReferences": {}
}