{
  "_format": "hh-sol-artifact-1",
  "contractName": "UpgradedNFTMarket",
  "sourceName": "contracts/UpgradedMarket.sol",
  "abi": [
    {
      "anonymous": false,
      "inputs": [
        {
          "indexed": true,
          "internalType": "uint256",
          "name": "itemId",
          "type": "uint256"
        },
        {
          "indexed": true,
          "internalType": "address",
          "name": "nftContract",
          "type": "address"
        },
        {
          "indexed": true,
          "internalType": "uint256",
          "name": "tokenId",
          "type": "uint256"
        },
        {
          "indexed": false,
          "internalType": "address",
          "name": "seller",
          "type": "address"
        },
        {
          "indexed": false,
          "internalType": "address",
          "name": "owner",
          "type": "address"
        },
        {
          "indexed": false,
          "internalType": "uint256",
          "name": "price",
          "type": "uint256"
        },
        {
          "indexed": false,
          "internalType": "bool",
          "name": "sold",
          "type": "bool"
        }
      ],
      "name": "MarketItemCreated",
      "type": "event"
    },
    {
      "inputs": [
        {
          "internalType": "address",
          "name": "nftContract",
          "type": "address"
        },
        {
          "internalType": "uint256",
          "name": "tokenId",
          "type": "uint256"
        },
        {
          "internalType": "uint256",
          "name": "price",
          "type": "uint256"
        }
      ],
      "name": "createMarketItem",
      "outputs": [],
      "stateMutability": "payable",
      "type": "function"
    },
    {
      "inputs": [
        {
          "internalType": "address",
          "name": "nftContract",
          "type": "address"
        },
        {
          "internalType": "uint256",
          "name": "itemId",
          "type": "uint256"
        }
      ],
      "name": "createMarketSale",
      "outputs": [],
      "stateMutability": "payable",
      "type": "function"
    },
    {
      "inputs": [],
      "name": "fetchItemsCreated",
      "outputs": [
        {
          "components": [
            {
              "internalType": "uint256",
              "name": "itemId",
              "type": "uint256"
            },
            {
              "internalType": "address",
              "name": "nftContract",
              "type": "address"
            },
            {
              "internalType": "uint256",
              "name": "tokenId",
              "type": "uint256"
            },
            {
              "internalType": "address payable",
              "name": "seller",
              "type": "address"
            },
            {
              "internalType": "address payable",
              "name": "owner",
              "type": "address"
            },
            {
              "internalType": "uint256",
              "name": "price",
              "type": "uint256"
            },
            {
              "internalType": "bool",
              "name": "sold",
              "type": "bool"
            }
          ],
          "internalType": "struct UpgradedNFTMarket.MarketItem[]",
          "name": "",
          "type": "tuple[]"
        }
      ],
      "stateMutability": "view",
      "type": "function"
    },
    {
      "inputs": [],
      "name": "fetchMarketItems",
      "outputs": [
        {
          "components": [
            {
              "internalType": "uint256",
              "name": "itemId",
              "type": "uint256"
            },
            {
              "internalType": "address",
              "name": "nftContract",
              "type": "address"
            },
            {
              "internalType": "uint256",
              "name": "tokenId",
              "type": "uint256"
            },
            {
              "internalType": "address payable",
              "name": "seller",
              "type": "address"
            },
            {
              "internalType": "address payable",
              "name": "owner",
              "type": "address"
            },
            {
              "internalType": "uint256",
              "name": "price",
              "type": "uint256"
            },
            {
              "internalType": "bool",
              "name": "sold",
              "type": "bool"
            }
          ],
          "internalType": "struct UpgradedNFTMarket.MarketItem[]",
          "name": "",
          "type": "tuple[]"
        }
      ],
      "stateMutability": "view",
      "type": "function"
    },
    {
      "inputs": [],
      "name": "fetchMyNFTs",
      "outputs": [
        {
          "components": [
            {
              "internalType": "uint256",
              "name": "itemId",
              "type": "uint256"
            },
            {
              "internalType": "address",
              "name": "nftContract",
              "type": "address"
            },
            {
              "internalType": "uint256",
              "name": "tokenId",
              "type": "uint256"
            },
            {
              "internalType": "address payable",
              "name": "seller",
              "type": "address"
            },
            {
              "internalType": "address payable",
              "name": "owner",
              "type": "address"
            },
            {
              "internalType": "uint256",
              "name": "price",
              "type": "uint256"
            },
            {
              "internalType": "bool",
              "name": "sold",
              "type": "bool"
            }
          ],
          "internalType": "struct UpgradedNFTMarket.MarketItem[]",
          "name": "",
          "type": "tuple[]"
        }
      ],
      "stateMutability": "view",
      "type": "function"
    },
    {
      "inputs": [],
      "name": "getListingPrice",
      "outputs": [
        {
          "internalType": "uint256",
          "name": "",
          "type": "uint256"
        }
      ],
      "stateMutability": "view",
      "type": "function"
    },
    {
      "inputs": [],
      "name": "initialize",
      "outputs": [],
      "stateMutability": "nonpayable",
      "type": "function"
    }
  ],
  "bytecode": "0x608060405234801561001057600080fd5b50610e00806100206000396000f3fe6080604052600436106100705760003560e01c806358eb2df51161004e57806358eb2df5146100d35780638129fc1c146100e8578063c23b139e146100fd578063f064c32e1461011057600080fd5b80630f08efe01461007557806312e85585146100a0578063202e3740146100be575b600080fd5b34801561008157600080fd5b5061008a610125565b6040516100979190610cd6565b60405180910390f35b3480156100ac57600080fd5b50603654604051908152602001610097565b3480156100ca57600080fd5b5061008a6102ce565b6100e66100e1366004610ca4565b6104b5565b005b3480156100f457600080fd5b506100e6610751565b6100e661010b366004610c7b565b610821565b34801561011c57600080fd5b5061008a610a3c565b6060600061013260335490565b9050600061013f60345490565b60335461014c9190610d82565b90506000808267ffffffffffffffff81111561017857634e487b7160e01b600052604160045260246000fd5b6040519080825280602002602001820160405280156101b157816020015b61019e610c23565b8152602001906001900390816101965790505b50905060005b848110156102c55760006037816101cf846001610d6a565b81526020810191909152604001600020600401546001600160a01b031614156102b35760006101ff826001610d6a565b600081815260376020908152604091829020825160e0810184528154815260018201546001600160a01b039081169382019390935260028201549381019390935260038101548216606084015260048101549091166080830152600581015460a0830152600681015460ff16151560c083015285519293509185908790811061029857634e487b7160e01b600052603260045260246000fd5b60209081029190910101526102ae600186610d6a565b945050505b806102bd81610d99565b9150506101b7565b50949350505050565b606060006102db60335490565b905060008060005b8381101561033e5733603760006102fb846001610d6a565b81526020810191909152604001600020600401546001600160a01b0316141561032c57610329600184610d6a565b92505b8061033681610d99565b9150506102e3565b5060008267ffffffffffffffff81111561036857634e487b7160e01b600052604160045260246000fd5b6040519080825280602002602001820160405280156103a157816020015b61038e610c23565b8152602001906001900390816103865790505b50905060005b848110156102c55733603760006103bf846001610d6a565b81526020810191909152604001600020600401546001600160a01b031614156104a35760006103ef826001610d6a565b600081815260376020908152604091829020825160e0810184528154815260018201546001600160a01b039081169382019390935260028201549381019390935260038101548216606084015260048101549091166080830152600581015460a0830152600681015460ff16151560c083015285519293509185908790811061048857634e487b7160e01b600052603260045260246000fd5b602090810291909101015261049e600186610d6a565b945050505b806104ad81610d99565b9150506103a7565b6002600154141561050d5760405162461bcd60e51b815260206004820152601f60248201527f5265656e7472616e637947756172643a207265656e7472616e742063616c6c0060448201526064015b60405180910390fd5b60026001558061055f5760405162461bcd60e51b815260206004820152601c60248201527f5072696365206d757374206265206174206c65617374203120776569000000006044820152606401610504565b60365434146105bc5760405162461bcd60e51b8152602060048201526024808201527f5072696365206d75737420626520657175616c20746f206c697374696e6720706044820152637269636560e01b6064820152608401610504565b6105ca603380546001019055565b60006105d560335490565b6040805160e0810182528281526001600160a01b0387811660208084018281528486018a8152336060870181815260006080890181815260a08a018e815260c08b018381528d84526037909852918b902099518a55945160018a018054918a166001600160a01b0319928316179055935160028a015590516003890180549189169185169190911790559251600480890180549290981691909316179095559051600586015590516006909401805494151560ff199095169490941790935592516323b872dd60e01b81529182015230602482015260448101869052919250906323b872dd90606401600060405180830381600087803b1580156106d857600080fd5b505af11580156106ec573d6000803e3d6000fd5b505060408051338152600060208201819052818301879052606082015290518693506001600160a01b038816925084917f045dfa01dcba2b36aba1d3dc4a874f4b0c5d2fbeb8d2c4b34a7d88c8d8f929d1919081900360800190a45050600180555050565b600054610100900460ff168061076a575060005460ff16155b6107cd5760405162461bcd60e51b815260206004820152602e60248201527f496e697469616c697a61626c653a20636f6e747261637420697320616c72656160448201526d191e481a5b9a5d1a585b1a5e995960921b6064820152608401610504565b600054610100900460ff161580156107ef576000805461ffff19166101011790555b603580546001600160a01b031916331790556658d15e17628000603655801561081e576000805461ff00191690555b50565b600260015414156108745760405162461bcd60e51b815260206004820152601f60248201527f5265656e7472616e637947756172643a207265656e7472616e742063616c6c006044820152606401610504565b6002600181905560008281526037602052604090206005810154910154348214610908576040805162461bcd60e51b81526020600482015260248101919091527f506c65617365207375626d6974207468652061736b696e67207072696365206960448201527f6e206f7264657220746f20636f6d706c657465207468652070757263686173656064820152608401610504565b6000838152603760205260408082206003015490516001600160a01b03909116913480156108fc02929091818181858888f19350505050158015610950573d6000803e3d6000fd5b506040516323b872dd60e01b8152306004820152336024820152604481018290526001600160a01b038516906323b872dd90606401600060405180830381600087803b15801561099f57600080fd5b505af11580156109b3573d6000803e3d6000fd5b50505060008481526037602052604090206004810180546001600160a01b03191633179055600601805460ff19166001179055506109f5603480546001019055565b6035546036546040516001600160a01b039092169181156108fc0291906000818181858888f19350505050158015610a31573d6000803e3d6000fd5b505060018055505050565b60606000610a4960335490565b905060008060005b83811015610aac573360376000610a69846001610d6a565b81526020810191909152604001600020600301546001600160a01b03161415610a9a57610a97600184610d6a565b92505b80610aa481610d99565b915050610a51565b5060008267ffffffffffffffff811115610ad657634e487b7160e01b600052604160045260246000fd5b604051908082528060200260200182016040528015610b0f57816020015b610afc610c23565b815260200190600190039081610af45790505b50905060005b848110156102c5573360376000610b2d846001610d6a565b81526020810191909152604001600020600301546001600160a01b03161415610c11576000610b5d826001610d6a565b600081815260376020908152604091829020825160e0810184528154815260018201546001600160a01b039081169382019390935260028201549381019390935260038101548216606084015260048101549091166080830152600581015460a0830152600681015460ff16151560c0830152855192935091859087908110610bf657634e487b7160e01b600052603260045260246000fd5b6020908102919091010152610c0c600186610d6a565b945050505b80610c1b81610d99565b915050610b15565b6040805160e081018252600080825260208201819052918101829052606081018290526080810182905260a0810182905260c081019190915290565b80356001600160a01b0381168114610c7657600080fd5b919050565b60008060408385031215610c8d578182fd5b610c9683610c5f565b946020939093013593505050565b600080600060608486031215610cb8578081fd5b610cc184610c5f565b95602085013595506040909401359392505050565b602080825282518282018190526000919060409081850190868401855b82811015610d5d57815180518552868101516001600160a01b039081168887015286820151878701526060808301518216908701526080808301519091169086015260a0808201519086015260c09081015115159085015260e09093019290850190600101610cf3565b5091979650505050505050565b60008219821115610d7d57610d7d610db4565b500190565b600082821015610d9457610d94610db4565b500390565b6000600019821415610dad57610dad610db4565b5060010190565b634e487b7160e01b600052601160045260246000fdfea26469706673582212202870d97fbcb7834a40ba3b1a406a197cfcbf94d90e0d9d013c79e03fd0db4b1264736f6c63430008040033",
  "linkReferences": {},
  "deployedLinkReferences": {}
}