{
  "_format": "hh-sol-artifact-1",
  "contractName": "AVPToken",
  "sourceName": "contracts/AVP_ERC20.sol",
  "abi": [
    {
      "anonymous": false,
      "inputs": [
        {
          "indexed": true,
          "internalType": "address",
          "name": "owner",
          "type": "address"
        },
        {
          "indexed": true,
          "internalType": "address",
          "name": "spender",
          "type": "address"
        },
        {
          "indexed": false,
          "internalType": "uint256",
          "name": "value",
          "type": "uint256"
        }
      ],
      "name": "Approval",
      "type": "event"
    },
    {
      "anonymous": false,
      "inputs": [
        {
          "indexed": true,
          "internalType": "address",
          "name": "from",
          "type": "address"
        },
        {
          "indexed": true,
          "internalType": "address",
          "name": "to",
          "type": "address"
        },
        {
          "indexed": false,
          "internalType": "uint256",
          "name": "value",
          "type": "uint256"
        }
      ],
      "name": "Transfer",
      "type": "event"
    },
    {
      "inputs": [
        {
          "internalType": "address",
          "name": "owner",
          "type": "address"
        },
        {
          "internalType": "address",
          "name": "spender",
          "type": "address"
        }
      ],
      "name": "allowance",
      "outputs": [
        {
          "internalType": "uint256",
          "name": "",
          "type": "uint256"
        }
      ],
      "stateMutability": "view",
      "type": "function"
    },
    {
      "inputs": [
        {
          "internalType": "address",
          "name": "spender",
          "type": "address"
        },
        {
          "internalType": "uint256",
          "name": "amount",
          "type": "uint256"
        }
      ],
      "name": "approve",
      "outputs": [
        {
          "internalType": "bool",
          "name": "",
          "type": "bool"
        }
      ],
      "stateMutability": "nonpayable",
      "type": "function"
    },
    {
      "inputs": [
        {
          "internalType": "address",
          "name": "account",
          "type": "address"
        }
      ],
      "name": "balanceOf",
      "outputs": [
        {
          "internalType": "uint256",
          "name": "",
          "type": "uint256"
        }
      ],
      "stateMutability": "view",
      "type": "function"
    },
    {
      "inputs": [],
      "name": "decimals",
      "outputs": [
        {
          "internalType": "uint8",
          "name": "",
          "type": "uint8"
        }
      ],
      "stateMutability": "view",
      "type": "function"
    },
    {
      "inputs": [
        {
          "internalType": "address",
          "name": "spender",
          "type": "address"
        },
        {
          "internalType": "uint256",
          "name": "subtractedValue",
          "type": "uint256"
        }
      ],
      "name": "decreaseAllowance",
      "outputs": [
        {
          "internalType": "bool",
          "name": "",
          "type": "bool"
        }
      ],
      "stateMutability": "nonpayable",
      "type": "function"
    },
    {
      "inputs": [
        {
          "internalType": "address",
          "name": "spender",
          "type": "address"
        },
        {
          "internalType": "uint256",
          "name": "addedValue",
          "type": "uint256"
        }
      ],
      "name": "increaseAllowance",
      "outputs": [
        {
          "internalType": "bool",
          "name": "",
          "type": "bool"
        }
      ],
      "stateMutability": "nonpayable",
      "type": "function"
    },
    {
      "inputs": [
        {
          "internalType": "string",
          "name": "name",
          "type": "string"
        },
        {
          "internalType": "string",
          "name": "symbol",
          "type": "string"
        }
      ],
      "name": "initialize",
      "outputs": [],
      "stateMutability": "nonpayable",
      "type": "function"
    },
    {
      "inputs": [],
      "name": "name",
      "outputs": [
        {
          "internalType": "string",
          "name": "",
          "type": "string"
        }
      ],
      "stateMutability": "view",
      "type": "function"
    },
    {
      "inputs": [],
      "name": "symbol",
      "outputs": [
        {
          "internalType": "string",
          "name": "",
          "type": "string"
        }
      ],
      "stateMutability": "view",
      "type": "function"
    },
    {
      "inputs": [],
      "name": "totalSupply",
      "outputs": [
        {
          "internalType": "uint256",
          "name": "",
          "type": "uint256"
        }
      ],
      "stateMutability": "view",
      "type": "function"
    },
    {
      "inputs": [
        {
          "internalType": "address",
          "name": "recipient",
          "type": "address"
        },
        {
          "internalType": "uint256",
          "name": "amount",
          "type": "uint256"
        }
      ],
      "name": "transfer",
      "outputs": [
        {
          "internalType": "bool",
          "name": "",
          "type": "bool"
        }
      ],
      "stateMutability": "nonpayable",
      "type": "function"
    },
    {
      "inputs": [
        {
          "internalType": "address",
          "name": "sender",
          "type": "address"
        },
        {
          "internalType": "address",
          "name": "recipient",
          "type": "address"
        },
        {
          "internalType": "uint256",
          "name": "amount",
          "type": "uint256"
        }
      ],
      "name": "transferFrom",
      "outputs": [
        {
          "internalType": "bool",
          "name": "",
          "type": "bool"
        }
      ],
      "stateMutability": "nonpayable",
      "type": "function"
    }
  ],
  "bytecode": "0x608060405234801561001057600080fd5b50610d97806100206000396000f3fe608060405234801561001057600080fd5b50600436106100b45760003560e01c80634cd88b76116100715780634cd88b761461014157806370a082311461015657806395d89b411461017f578063a457c2d714610187578063a9059cbb1461019a578063dd62ed3e146101ad57600080fd5b806306fdde03146100b9578063095ea7b3146100d757806318160ddd146100fa57806323b872dd1461010c578063313ce5671461011f578063395093511461012e575b600080fd5b6100c16101e6565b6040516100ce9190610c4b565b60405180910390f35b6100ea6100e5366004610bc1565b610278565b60405190151581526020016100ce565b6035545b6040519081526020016100ce565b6100ea61011a366004610b86565b61028e565b604051601281526020016100ce565b6100ea61013c366004610bc1565b61033d565b61015461014f366004610bea565b610379565b005b6100fe610164366004610b33565b6001600160a01b031660009081526033602052604090205490565b6100c1610406565b6100ea610195366004610bc1565b610415565b6100ea6101a8366004610bc1565b6104ae565b6100fe6101bb366004610b54565b6001600160a01b03918216600090815260346020908152604080832093909416825291909152205490565b6060603680546101f590610d10565b80601f016020809104026020016040519081016040528092919081815260200182805461022190610d10565b801561026e5780601f106102435761010080835404028352916020019161026e565b820191906000526020600020905b81548152906001019060200180831161025157829003601f168201915b5050505050905090565b60006102853384846104bb565b50600192915050565b600061029b8484846105df565b6001600160a01b0384166000908152603460209081526040808320338452909152902054828110156103255760405162461bcd60e51b815260206004820152602860248201527f45524332303a207472616e7366657220616d6f756e74206578636565647320616044820152676c6c6f77616e636560c01b60648201526084015b60405180910390fd5b61033285338584036104bb565b506001949350505050565b3360008181526034602090815260408083206001600160a01b03871684529091528120549091610285918590610374908690610cec565b6104bb565b600054610100900460ff1680610392575060005460ff16155b6103ae5760405162461bcd60e51b815260040161031c90610c9e565b600054610100900460ff161580156103d0576000805461ffff19166101011790555b6103da83836107ae565b6103ef336a7226a2fd7a7818ca000000610817565b8015610401576000805461ff00191690555b505050565b6060603780546101f590610d10565b3360009081526034602090815260408083206001600160a01b0386168452909152812054828110156104975760405162461bcd60e51b815260206004820152602560248201527f45524332303a2064656372656173656420616c6c6f77616e63652062656c6f77604482015264207a65726f60d81b606482015260840161031c565b6104a433858584036104bb565b5060019392505050565b60006102853384846105df565b6001600160a01b03831661051d5760405162461bcd60e51b8152602060048201526024808201527f45524332303a20617070726f76652066726f6d20746865207a65726f206164646044820152637265737360e01b606482015260840161031c565b6001600160a01b03821661057e5760405162461bcd60e51b815260206004820152602260248201527f45524332303a20617070726f766520746f20746865207a65726f206164647265604482015261737360f01b606482015260840161031c565b6001600160a01b0383811660008181526034602090815260408083209487168084529482529182902085905590518481527f8c5be1e5ebec7d5bd14f71427d1e84f3dd0314c0f7b2291e5b200ac8c7c3b925910160405180910390a3505050565b6001600160a01b0383166106435760405162461bcd60e51b815260206004820152602560248201527f45524332303a207472616e736665722066726f6d20746865207a65726f206164604482015264647265737360d81b606482015260840161031c565b6001600160a01b0382166106a55760405162461bcd60e51b815260206004820152602360248201527f45524332303a207472616e7366657220746f20746865207a65726f206164647260448201526265737360e81b606482015260840161031c565b6001600160a01b0383166000908152603360205260409020548181101561071d5760405162461bcd60e51b815260206004820152602660248201527f45524332303a207472616e7366657220616d6f756e7420657863656564732062604482015265616c616e636560d01b606482015260840161031c565b6001600160a01b03808516600090815260336020526040808220858503905591851681529081208054849290610754908490610cec565b92505081905550826001600160a01b0316846001600160a01b03167fddf252ad1be2c89b69c2b068fc378daa952ba7f163c4a11628f55a4df523b3ef846040516107a091815260200190565b60405180910390a350505050565b600054610100900460ff16806107c7575060005460ff16155b6107e35760405162461bcd60e51b815260040161031c90610c9e565b600054610100900460ff16158015610805576000805461ffff19166101011790555b61080d6108f6565b6103ef8383610962565b6001600160a01b03821661086d5760405162461bcd60e51b815260206004820152601f60248201527f45524332303a206d696e7420746f20746865207a65726f206164647265737300604482015260640161031c565b806035600082825461087f9190610cec565b90915550506001600160a01b038216600090815260336020526040812080548392906108ac908490610cec565b90915550506040518181526001600160a01b038316906000907fddf252ad1be2c89b69c2b068fc378daa952ba7f163c4a11628f55a4df523b3ef9060200160405180910390a35050565b600054610100900460ff168061090f575060005460ff16155b61092b5760405162461bcd60e51b815260040161031c90610c9e565b600054610100900460ff1615801561094d576000805461ffff19166101011790555b801561095f576000805461ff00191690555b50565b600054610100900460ff168061097b575060005460ff16155b6109975760405162461bcd60e51b815260040161031c90610c9e565b600054610100900460ff161580156109b9576000805461ffff19166101011790555b82516109cc9060369060208601906109f7565b5081516109e09060379060208501906109f7565b508015610401576000805461ff0019169055505050565b828054610a0390610d10565b90600052602060002090601f016020900481019282610a255760008555610a6b565b82601f10610a3e57805160ff1916838001178555610a6b565b82800160010185558215610a6b579182015b82811115610a6b578251825591602001919060010190610a50565b50610a77929150610a7b565b5090565b5b80821115610a775760008155600101610a7c565b80356001600160a01b0381168114610aa757600080fd5b919050565b600082601f830112610abc578081fd5b813567ffffffffffffffff80821115610ad757610ad7610d4b565b604051601f8301601f19908116603f01168101908282118183101715610aff57610aff610d4b565b81604052838152866020858801011115610b17578485fd5b8360208701602083013792830160200193909352509392505050565b600060208284031215610b44578081fd5b610b4d82610a90565b9392505050565b60008060408385031215610b66578081fd5b610b6f83610a90565b9150610b7d60208401610a90565b90509250929050565b600080600060608486031215610b9a578081fd5b610ba384610a90565b9250610bb160208501610a90565b9150604084013590509250925092565b60008060408385031215610bd3578182fd5b610bdc83610a90565b946020939093013593505050565b60008060408385031215610bfc578182fd5b823567ffffffffffffffff80821115610c13578384fd5b610c1f86838701610aac565b93506020850135915080821115610c34578283fd5b50610c4185828601610aac565b9150509250929050565b6000602080835283518082850152825b81811015610c7757858101830151858201604001528201610c5b565b81811115610c885783604083870101525b50601f01601f1916929092016040019392505050565b6020808252602e908201527f496e697469616c697a61626c653a20636f6e747261637420697320616c72656160408201526d191e481a5b9a5d1a585b1a5e995960921b606082015260800190565b60008219821115610d0b57634e487b7160e01b81526011600452602481fd5b500190565b600181811c90821680610d2457607f821691505b60208210811415610d4557634e487b7160e01b600052602260045260246000fd5b50919050565b634e487b7160e01b600052604160045260246000fdfea2646970667358221220b2d416884bb479611f21781c5fe380486f68fd7e3814620cca687103185ab4e264736f6c63430008040033",
  "linkReferences": {},
  "deployedLinkReferences": {}
}